{
  "_format": "hh-sol-artifact-1",
  "contractName": "DappVotes",
  "sourceName": "contracts/DappVotes.sol",
  "abi": [
    {
      "anonymous": false,
      "inputs": [
        {
          "indexed": true,
          "internalType": "address",
          "name": "voter",
          "type": "address"
        },
        {
          "indexed": false,
          "internalType": "uint256",
          "name": "timestamp",
          "type": "uint256"
        }
      ],
      "name": "Voted",
      "type": "event"
    },
    {
      "inputs": [
        {
          "internalType": "uint256",
          "name": "id",
          "type": "uint256"
        },
        {
          "internalType": "string",
          "name": "name",
          "type": "string"
        }
      ],
      "name": "contest",
      "outputs": [],
      "stateMutability": "nonpayable",
      "type": "function"
    },
    {
      "inputs": [
        {
          "internalType": "string",
          "name": "title",
          "type": "string"
        },
        {
          "internalType": "string",
          "name": "description",
          "type": "string"
        },
        {
          "internalType": "uint256",
          "name": "startsAt",
          "type": "uint256"
        },
        {
          "internalType": "uint256",
          "name": "endsAt",
          "type": "uint256"
        }
      ],
      "name": "createPoll",
      "outputs": [],
      "stateMutability": "nonpayable",
      "type": "function"
    },
    {
      "inputs": [
        {
          "internalType": "uint256",
          "name": "id",
          "type": "uint256"
        }
      ],
      "name": "deletePoll",
      "outputs": [],
      "stateMutability": "nonpayable",
      "type": "function"
    },
    {
      "inputs": [
        {
          "internalType": "uint256",
          "name": "id",
          "type": "uint256"
        },
        {
          "internalType": "uint256",
          "name": "cid",
          "type": "uint256"
        }
      ],
      "name": "getContestant",
      "outputs": [
        {
          "components": [
            {
              "internalType": "uint256",
              "name": "id",
              "type": "uint256"
            },
            {
              "internalType": "string",
              "name": "name",
              "type": "string"
            },
            {
              "internalType": "address",
              "name": "voter",
              "type": "address"
            },
            {
              "internalType": "uint256",
              "name": "votes",
              "type": "uint256"
            },
            {
              "internalType": "address[]",
              "name": "voters",
              "type": "address[]"
            }
          ],
          "internalType": "struct DappVotes.ContestantStruct",
          "name": "",
          "type": "tuple"
        }
      ],
      "stateMutability": "view",
      "type": "function"
    },
    {
      "inputs": [
        {
          "internalType": "uint256",
          "name": "id",
          "type": "uint256"
        }
      ],
      "name": "getContestants",
      "outputs": [
        {
          "components": [
            {
              "internalType": "uint256",
              "name": "id",
              "type": "uint256"
            },
            {
              "internalType": "string",
              "name": "name",
              "type": "string"
            },
            {
              "internalType": "address",
              "name": "voter",
              "type": "address"
            },
            {
              "internalType": "uint256",
              "name": "votes",
              "type": "uint256"
            },
            {
              "internalType": "address[]",
              "name": "voters",
              "type": "address[]"
            }
          ],
          "internalType": "struct DappVotes.ContestantStruct[]",
          "name": "Contestants",
          "type": "tuple[]"
        }
      ],
      "stateMutability": "view",
      "type": "function"
    },
    {
      "inputs": [
        {
          "internalType": "uint256",
          "name": "id",
          "type": "uint256"
        }
      ],
      "name": "getPoll",
      "outputs": [
        {
          "components": [
            {
              "internalType": "uint256",
              "name": "id",
              "type": "uint256"
            },
            {
              "internalType": "string",
              "name": "title",
              "type": "string"
            },
            {
              "internalType": "string",
              "name": "description",
              "type": "string"
            },
            {
              "internalType": "uint256",
              "name": "votes",
              "type": "uint256"
            },
            {
              "internalType": "uint256",
              "name": "contestants",
              "type": "uint256"
            },
            {
              "internalType": "bool",
              "name": "deleted",
              "type": "bool"
            },
            {
              "internalType": "address",
              "name": "director",
              "type": "address"
            },
            {
              "internalType": "uint256",
              "name": "startsAt",
              "type": "uint256"
            },
            {
              "internalType": "uint256",
              "name": "endsAt",
              "type": "uint256"
            },
            {
              "internalType": "uint256",
              "name": "timestamp",
              "type": "uint256"
            },
            {
              "internalType": "address[]",
              "name": "voters",
              "type": "address[]"
            },
            {
              "internalType": "string[]",
              "name": "avatars",
              "type": "string[]"
            }
          ],
          "internalType": "struct DappVotes.PollStruct",
          "name": "",
          "type": "tuple"
        }
      ],
      "stateMutability": "view",
      "type": "function"
    },
    {
      "inputs": [],
      "name": "getPolls",
      "outputs": [
        {
          "components": [
            {
              "internalType": "uint256",
              "name": "id",
              "type": "uint256"
            },
            {
              "internalType": "string",
              "name": "title",
              "type": "string"
            },
            {
              "internalType": "string",
              "name": "description",
              "type": "string"
            },
            {
              "internalType": "uint256",
              "name": "votes",
              "type": "uint256"
            },
            {
              "internalType": "uint256",
              "name": "contestants",
              "type": "uint256"
            },
            {
              "internalType": "bool",
              "name": "deleted",
              "type": "bool"
            },
            {
              "internalType": "address",
              "name": "director",
              "type": "address"
            },
            {
              "internalType": "uint256",
              "name": "startsAt",
              "type": "uint256"
            },
            {
              "internalType": "uint256",
              "name": "endsAt",
              "type": "uint256"
            },
            {
              "internalType": "uint256",
              "name": "timestamp",
              "type": "uint256"
            },
            {
              "internalType": "address[]",
              "name": "voters",
              "type": "address[]"
            },
            {
              "internalType": "string[]",
              "name": "avatars",
              "type": "string[]"
            }
          ],
          "internalType": "struct DappVotes.PollStruct[]",
          "name": "Polls",
          "type": "tuple[]"
        }
      ],
      "stateMutability": "view",
      "type": "function"
    },
    {
      "inputs": [
        {
          "internalType": "uint256",
          "name": "id",
          "type": "uint256"
        },
        {
          "internalType": "string",
          "name": "title",
          "type": "string"
        },
        {
          "internalType": "string",
          "name": "description",
          "type": "string"
        },
        {
          "internalType": "uint256",
          "name": "startsAt",
          "type": "uint256"
        },
        {
          "internalType": "uint256",
          "name": "endsAt",
          "type": "uint256"
        }
      ],
      "name": "updatePoll",
      "outputs": [],
      "stateMutability": "nonpayable",
      "type": "function"
    },
    {
      "inputs": [
        {
          "internalType": "uint256",
          "name": "id",
          "type": "uint256"
        },
        {
          "internalType": "uint256",
          "name": "cid",
          "type": "uint256"
        }
      ],
      "name": "vote",
      "outputs": [],
      "stateMutability": "nonpayable",
      "type": "function"
    }
  ],
  "bytecode": "0x608060405234801561001057600080fd5b50612015806100206000396000f3fe608060405234801561001057600080fd5b50600436106100935760003560e01c80631f35b51d116100665780631f35b51d146100fe5780639976ef9b14610111578063b384abef14610124578063cee9dc4514610137578063d34364111461015757600080fd5b806306aceddc146100985780631112bead146100ad578063120fe89b146100c05780631a8cbcaa146100de575b600080fd5b6100ab6100a6366004611917565b610177565b005b6100ab6100bb36600461198b565b6103ed565b6100c8610626565b6040516100d59190611bc4565b60405180910390f35b6100f16100ec366004611c26565b610a0f565b6040516100d59190611c3f565b6100ab61010c366004611c26565b610cff565b6100ab61011f366004611c59565b610de1565b6100ab610132366004611ca0565b610fd5565b61014a610145366004611c26565b6112b0565b6040516100d59190611d1f565b61016a610165366004611ca0565b611522565b6040516100d59190611d74565b60008451116101c55760405162461bcd60e51b81526020600482015260156024820152745469746c652063616e6e6f7420626520656d70747960581b60448201526064015b60405180910390fd5b60008351116102165760405162461bcd60e51b815260206004820152601b60248201527f4465736372697074696f6e2063616e6e6f7420626520656d707479000000000060448201526064016101bc565b600082116102705760405162461bcd60e51b815260206004820152602160248201527f53746172742064617465206d7573742062652067726561746572207468616e206044820152600360fc1b60648201526084016101bc565b81811161028f5760405162461bcd60e51b81526004016101bc90611d87565b61029d600080546001019055565b6102a56116aa565b6000548152602081018590526040810184905260e0810183905261010081018290523360c08201526102d561168b565b61012082015280516000908152600360209081526040909120825181559082015182919060018201906103089082611e58565b506040820151600282019061031d9082611e58565b50606082015160038201556080820151600482015560a082015160058201805460c08501516001600160a81b0319909116921515610100600160a81b031916929092176101006001600160a01b03909316830217905560e083015160068301558201516007820155610120820151600882015561014082015180516103ac916009840191602090910190611716565b5061016082015180516103c991600a84019160209091019061177b565b505090516000908152600260205260409020805460ff191660011790555050505050565b60008581526002602052604090205460ff1661041b5760405162461bcd60e51b81526004016101bc90611f18565b60008581526003602052604090206005015461010090046001600160a01b0316331461047f5760405162461bcd60e51b8152602060048201526013602482015272556e617574686f72697a656420656e7469747960681b60448201526064016101bc565b60008451116104c85760405162461bcd60e51b81526020600482015260156024820152745469746c652063616e6e6f7420626520656d70747960581b60448201526064016101bc565b60008351116105195760405162461bcd60e51b815260206004820152601b60248201527f4465736372697074696f6e2063616e6e6f7420626520656d707479000000000060448201526064016101bc565b60008581526003602052604090206005015460ff161561057b5760405162461bcd60e51b815260206004820152601760248201527f506f6c6c696e6720616c72656164792064656c6574656400000000000000000060448201526064016101bc565b600085815260036020819052604090912001546001116105ad5760405162461bcd60e51b81526004016101bc90611f40565b8181116105cc5760405162461bcd60e51b81526004016101bc90611d87565b60008581526003602052604090206001016105e78582611e58565b5060008581526003602052604090206002016106038482611e58565b506000948552600360205260409094206006810191909155600701929092555050565b6060600060015b600054811161066f5760008181526003602052604090206005015460ff1661065d578161065981611f86565b9250505b8061066781611f86565b91505061062d565b508067ffffffffffffffff81111561068957610689611874565b6040519080825280602002602001820160405280156106c257816020015b6106af6116aa565b8152602001906001900390816106a75790505b509150600060015b6000548111610a095760008181526003602052604090206005015460ff166109f75760036000828152602001908152602001600020604051806101800160405290816000820154815260200160018201805461072590611dcf565b80601f016020809104026020016040519081016040528092919081815260200182805461075190611dcf565b801561079e5780601f106107735761010080835404028352916020019161079e565b820191906000526020600020905b81548152906001019060200180831161078157829003601f168201915b505050505081526020016002820180546107b790611dcf565b80601f01602080910402602001604051908101604052809291908181526020018280546107e390611dcf565b80156108305780601f1061080557610100808354040283529160200191610830565b820191906000526020600020905b81548152906001019060200180831161081357829003601f168201915b505050918352505060038201546020808301919091526004830154604080840191909152600584015460ff8116151560608501526001600160a01b0361010091829004166080850152600685015460a0850152600785015460c0850152600885015460e0850152600985018054835181860281018601909452808452919094019391928301828280156108ec57602002820191906000526020600020905b81546001600160a01b031681526001909101906020018083116108ce575b50505050508152602001600a8201805480602002602001604051908101604052809291908181526020016000905b828210156109c657838290600052602060002001805461093990611dcf565b80601f016020809104026020016040519081016040528092919081815260200182805461096590611dcf565b80156109b25780601f10610987576101008083540402835291602001916109b2565b820191906000526020600020905b81548152906001019060200180831161099557829003601f168201915b50505050508152602001906001019061091a565b505050915250859050836109d981611f86565b9450815181106109eb576109eb611f9f565b60200260200101819052505b80610a0181611f86565b9150506106ca565b50505090565b610a176116aa565b600360008381526020019081526020016000206040518061018001604052908160008201548152602001600182018054610a5090611dcf565b80601f0160208091040260200160405190810160405280929190818152602001828054610a7c90611dcf565b8015610ac95780601f10610a9e57610100808354040283529160200191610ac9565b820191906000526020600020905b815481529060010190602001808311610aac57829003601f168201915b50505050508152602001600282018054610ae290611dcf565b80601f0160208091040260200160405190810160405280929190818152602001828054610b0e90611dcf565b8015610b5b5780601f10610b3057610100808354040283529160200191610b5b565b820191906000526020600020905b815481529060010190602001808311610b3e57829003601f168201915b505050918352505060038201546020808301919091526004830154604080840191909152600584015460ff8116151560608501526001600160a01b0361010091829004166080850152600685015460a0850152600785015460c0850152600885015460e085015260098501805483518186028101860190945280845291909401939192830182828015610c1757602002820191906000526020600020905b81546001600160a01b03168152600190910190602001808311610bf9575b50505050508152602001600a8201805480602002602001604051908101604052809291908181526020016000905b82821015610cf1578382906000526020600020018054610c6490611dcf565b80601f0160208091040260200160405190810160405280929190818152602001828054610c9090611dcf565b8015610cdd5780601f10610cb257610100808354040283529160200191610cdd565b820191906000526020600020905b815481529060010190602001808311610cc057829003601f168201915b505050505081526020019060010190610c45565b505050915250909392505050565b60008181526002602052604090205460ff16610d2d5760405162461bcd60e51b81526004016101bc90611f18565b60008181526003602052604090206005015461010090046001600160a01b03163314610d915760405162461bcd60e51b8152602060048201526013602482015272556e617574686f72697a656420656e7469747960681b60448201526064016101bc565b60008181526003602081905260409091200154600111610dc35760405162461bcd60e51b81526004016101bc90611f40565b6000908152600360205260409020600501805460ff19166001179055565b60008281526002602052604090205460ff16610e0f5760405162461bcd60e51b81526004016101bc90611f18565b6000815111610e575760405162461bcd60e51b81526020600482015260146024820152736e616d652063616e6e6f7420626520656d70747960601b60448201526064016101bc565b60008281526003602081905260409091200154600111610e895760405162461bcd60e51b81526004016101bc90611f40565b600082815260056020908152604080832033845290915290205460ff1615610ee75760405162461bcd60e51b8152602060048201526011602482015270105b1c9958591e4818dbdb9d195cdd1959607a1b60448201526064016101bc565b610ef5600180546001019055565b610efd6117cd565b6020818101838152336040808501919091526001805485526000878152600685528281208651825290945292208351815590518392820190610f3f9082611e58565b5060408201516002820180546001600160a01b0319166001600160a01b039092169190911790556060820151600382015560808201518051610f8b916004840191602090910190611716565b50505060008381526005602090815260408083203384528252808320805460ff1916600117905585835260039091528120600401805491610fcb83611f86565b9190505550505050565b60008281526002602052604090205460ff166110035760405162461bcd60e51b81526004016101bc90611f18565b600082815260046020908152604080832033845290915290205460ff161561105d5760405162461bcd60e51b815260206004820152600d60248201526c105b1c9958591e481d9bdd1959609a1b60448201526064016101bc565b60008281526003602052604090206005015460ff16156110b75760405162461bcd60e51b8152602060048201526015602482015274506f6c6c696e67206e6f7420617661696c61626c6560581b60448201526064016101bc565b6000828152600360205260409020600401546001106111115760405162461bcd60e51b81526020600482015260166024820152754e6f7420656e6f75676820636f6e74657374616e747360501b60448201526064016101bc565b60008281526003602052604090206006015461112b61168b565b10158015611150575060008281526003602052604090206007015461114e61168b565b105b61119c5760405162461bcd60e51b815260206004820152601960248201527f566f74696e67206d75737420626520696e2073657373696f6e0000000000000060448201526064016101bc565b60008281526003602081905260408220018054916111b983611f86565b9091555050600082815260036020818152604080842060090180546001810182559085528285200180546001600160a01b031916331790558584526006825280842085855290915282200180549161121083611f86565b90915550506000828152600660209081526040808320848452825280832060049081018054600181810183559186528486200180546001600160a01b031916339081179091558786529184528285208286529093529220805460ff191690911790557f4d99b957a2bc29a30ebd96a7be8e68fe50a3c701db28a91436490b7d53870ca461129b61168b565b60405190815260200160405180910390a25050565b6060600060015b60015481116113015760008481526006602090815260408083208484529091529020548190036112ef57816112eb81611f86565b9250505b806112f981611f86565b9150506112b7565b508067ffffffffffffffff81111561131b5761131b611874565b60405190808252806020026020018201604052801561135457816020015b6113416117cd565b8152602001906001900390816113395790505b509150600060015b600154811161151a576000858152600660209081526040808320848452909152902054819003611508576000858152600660209081526040808320848452825291829020825160a081019093528054835260018101805491928401916113c190611dcf565b80601f01602080910402602001604051908101604052809291908181526020018280546113ed90611dcf565b801561143a5780601f1061140f5761010080835404028352916020019161143a565b820191906000526020600020905b81548152906001019060200180831161141d57829003601f168201915b505050505081526020016002820160009054906101000a90046001600160a01b03166001600160a01b03166001600160a01b0316815260200160038201548152602001600482018054806020026020016040519081016040528092919081815260200182805480156114d557602002820191906000526020600020905b81546001600160a01b031681526001909101906020018083116114b7575b5050505050815250508483806114ea90611f86565b9450815181106114fc576114fc611f9f565b60200260200101819052505b8061151281611f86565b91505061135c565b505050919050565b61152a6117cd565b6000838152600660209081526040808320858452825291829020825160a0810190935280548352600181018054919284019161156590611dcf565b80601f016020809104026020016040519081016040528092919081815260200182805461159190611dcf565b80156115de5780601f106115b3576101008083540402835291602001916115de565b820191906000526020600020905b8154815290600101906020018083116115c157829003601f168201915b505050505081526020016002820160009054906101000a90046001600160a01b03166001600160a01b03166001600160a01b03168152602001600382015481526020016004820180548060200260200160405190810160405280929190818152602001828054801561167957602002820191906000526020600020905b81546001600160a01b0316815260019091019060200180831161165b575b50505050508152505090505b92915050565b6000611699426103e8611fb5565b6116a5906103e8611fcc565b905090565b604051806101800160405280600081526020016060815260200160608152602001600081526020016000815260200160001515815260200160006001600160a01b0316815260200160008152602001600081526020016000815260200160608152602001606081525090565b82805482825590600052602060002090810192821561176b579160200282015b8281111561176b57825182546001600160a01b0319166001600160a01b03909116178255602090920191600190910190611736565b50611777929150611805565b5090565b8280548282559060005260206000209081019282156117c1579160200282015b828111156117c157825182906117b19082611e58565b509160200191906001019061179b565b5061177792915061181a565b6040518060a00160405280600081526020016060815260200160006001600160a01b0316815260200160008152602001606081525090565b5b808211156117775760008155600101611806565b8082111561177757600061182e8282611837565b5060010161181a565b50805461184390611dcf565b6000825580601f10611853575050565b601f0160209004906000526020600020908101906118719190611805565b50565b634e487b7160e01b600052604160045260246000fd5b600082601f83011261189b57600080fd5b813567ffffffffffffffff808211156118b6576118b6611874565b604051601f8301601f19908116603f011681019082821181831017156118de576118de611874565b816040528381528660208588010111156118f757600080fd5b836020870160208301376000602085830101528094505050505092915050565b6000806000806080858703121561192d57600080fd5b843567ffffffffffffffff8082111561194557600080fd5b6119518883890161188a565b9550602087013591508082111561196757600080fd5b506119748782880161188a565b949794965050505060408301359260600135919050565b600080600080600060a086880312156119a357600080fd5b85359450602086013567ffffffffffffffff808211156119c257600080fd5b6119ce89838a0161188a565b955060408801359150808211156119e457600080fd5b506119f18882890161188a565b9598949750949560608101359550608001359392505050565b6000815180845260005b81811015611a3057602081850181015186830182015201611a14565b506000602082860101526020601f19601f83011685010191505092915050565b600081518084526020808501945080840160005b83811015611a895781516001600160a01b031687529582019590820190600101611a64565b509495945050505050565b6000815180845260208085019450848260051b860182860160005b85811015611ad9578383038952611ac7838351611a0a565b98850198925090840190600101611aaf565b5090979650505050505050565b6000610180825184526020830151816020860152611b0682860182611a0a565b91505060408301518482036040860152611b208282611a0a565b915050606083015160608501526080830151608085015260a0830151611b4a60a086018215159052565b5060c0830151611b6560c08601826001600160a01b03169052565b5060e08381015190850152610100808401519085015261012080840151908501526101408084015185830382870152611b9e8382611a50565b925050506101608084015185830382870152611bba8382611a94565b9695505050505050565b6000602080830181845280855180835260408601915060408160051b870101925083870160005b82811015611c1957603f19888603018452611c07858351611ae6565b94509285019290850190600101611beb565b5092979650505050505050565b600060208284031215611c3857600080fd5b5035919050565b602081526000611c526020830184611ae6565b9392505050565b60008060408385031215611c6c57600080fd5b82359150602083013567ffffffffffffffff811115611c8a57600080fd5b611c968582860161188a565b9150509250929050565b60008060408385031215611cb357600080fd5b50508035926020909101359150565b805182526000602082015160a06020850152611ce160a0850182611a0a565b905060018060a01b0360408401511660408501526060830151606085015260808301518482036080860152611d168282611a50565b95945050505050565b6000602080830181845280855180835260408601915060408160051b870101925083870160005b82811015611c1957603f19888603018452611d62858351611cc2565b94509285019290850190600101611d46565b602081526000611c526020830184611cc2565b60208082526028908201527f456e642064617465206d7573742062652067726561746572207468616e207374604082015267617274206461746560c01b606082015260800190565b600181811c90821680611de357607f821691505b602082108103611e0357634e487b7160e01b600052602260045260246000fd5b50919050565b601f821115611e5357600081815260208120601f850160051c81016020861015611e305750805b601f850160051c820191505b81811015611e4f57828155600101611e3c565b5050505b505050565b815167ffffffffffffffff811115611e7257611e72611874565b611e8681611e808454611dcf565b84611e09565b602080601f831160018114611ebb5760008415611ea35750858301515b600019600386901b1c1916600185901b178555611e4f565b600085815260208120601f198616915b82811015611eea57888601518255948401946001909101908401611ecb565b5085821015611f085787850151600019600388901b60f8161c191681555b5050505050600190811b01905550565b6020808252600e908201526d141bdb1b081b9bdd08199bdd5b9960921b604082015260600190565b602080825260169082015275506f6c6c2068617320766f74657320616c726561647960501b604082015260600190565b634e487b7160e01b600052601160045260246000fd5b600060018201611f9857611f98611f70565b5060010190565b634e487b7160e01b600052603260045260246000fd5b808202811582820484141761168557611685611f70565b8082018082111561168557611685611f7056fea2646970667358221220067aba8af1a1bfb78ca802b3dd31b4a705d5f225a10f0e343157ce60fa8d3c5964736f6c63430008110033",
  "linkReferences": {},
  "deployedLinkReferences": {}
}