{
  "_format": "hh-sol-artifact-1",
  "contractName": "DappVotes",
  "sourceName": "contracts/DappVotes.sol",
  "abi": [
    {
      "anonymous": false,
      "inputs": [
        {
          "indexed": true,
          "internalType": "address",
          "name": "voter",
          "type": "address"
        },
        {
          "indexed": false,
          "internalType": "uint256",
          "name": "timestamp",
          "type": "uint256"
        }
      ],
      "name": "Voted",
      "type": "event"
    },
    {
      "inputs": [
        {
          "internalType": "uint256",
          "name": "id",
          "type": "uint256"
        },
        {
          "internalType": "string",
          "name": "name",
          "type": "string"
        },
        {
          "internalType": "string",
          "name": "avatar",
          "type": "string"
        }
      ],
      "name": "contest",
      "outputs": [],
      "stateMutability": "nonpayable",
      "type": "function"
    },
    {
      "inputs": [
        {
          "internalType": "string",
          "name": "title",
          "type": "string"
        },
        {
          "internalType": "string",
          "name": "description",
          "type": "string"
        },
        {
          "internalType": "uint256",
          "name": "startsAt",
          "type": "uint256"
        },
        {
          "internalType": "uint256",
          "name": "endsAt",
          "type": "uint256"
        }
      ],
      "name": "createPoll",
      "outputs": [],
      "stateMutability": "nonpayable",
      "type": "function"
    },
    {
      "inputs": [
        {
          "internalType": "uint256",
          "name": "id",
          "type": "uint256"
        }
      ],
      "name": "deletePoll",
      "outputs": [],
      "stateMutability": "nonpayable",
      "type": "function"
    },
    {
      "inputs": [
        {
          "internalType": "uint256",
          "name": "id",
          "type": "uint256"
        },
        {
          "internalType": "uint256",
          "name": "cid",
          "type": "uint256"
        }
      ],
      "name": "getContestant",
      "outputs": [
        {
          "components": [
            {
              "internalType": "uint256",
              "name": "id",
              "type": "uint256"
            },
            {
              "internalType": "string",
              "name": "name",
              "type": "string"
            },
            {
              "internalType": "address",
              "name": "voter",
              "type": "address"
            },
            {
              "internalType": "uint256",
              "name": "votes",
              "type": "uint256"
            },
            {
              "internalType": "address[]",
              "name": "voters",
              "type": "address[]"
            }
          ],
          "internalType": "struct DappVotes.ContestantStruct",
          "name": "",
          "type": "tuple"
        }
      ],
      "stateMutability": "view",
      "type": "function"
    },
    {
      "inputs": [
        {
          "internalType": "uint256",
          "name": "id",
          "type": "uint256"
        }
      ],
      "name": "getContestants",
      "outputs": [
        {
          "components": [
            {
              "internalType": "uint256",
              "name": "id",
              "type": "uint256"
            },
            {
              "internalType": "string",
              "name": "name",
              "type": "string"
            },
            {
              "internalType": "address",
              "name": "voter",
              "type": "address"
            },
            {
              "internalType": "uint256",
              "name": "votes",
              "type": "uint256"
            },
            {
              "internalType": "address[]",
              "name": "voters",
              "type": "address[]"
            }
          ],
          "internalType": "struct DappVotes.ContestantStruct[]",
          "name": "Contestants",
          "type": "tuple[]"
        }
      ],
      "stateMutability": "view",
      "type": "function"
    },
    {
      "inputs": [
        {
          "internalType": "uint256",
          "name": "id",
          "type": "uint256"
        }
      ],
      "name": "getPoll",
      "outputs": [
        {
          "components": [
            {
              "internalType": "uint256",
              "name": "id",
              "type": "uint256"
            },
            {
              "internalType": "string",
              "name": "title",
              "type": "string"
            },
            {
              "internalType": "string",
              "name": "description",
              "type": "string"
            },
            {
              "internalType": "uint256",
              "name": "votes",
              "type": "uint256"
            },
            {
              "internalType": "uint256",
              "name": "contestants",
              "type": "uint256"
            },
            {
              "internalType": "bool",
              "name": "deleted",
              "type": "bool"
            },
            {
              "internalType": "address",
              "name": "director",
              "type": "address"
            },
            {
              "internalType": "uint256",
              "name": "startsAt",
              "type": "uint256"
            },
            {
              "internalType": "uint256",
              "name": "endsAt",
              "type": "uint256"
            },
            {
              "internalType": "uint256",
              "name": "timestamp",
              "type": "uint256"
            },
            {
              "internalType": "address[]",
              "name": "voters",
              "type": "address[]"
            },
            {
              "internalType": "string[]",
              "name": "avatars",
              "type": "string[]"
            }
          ],
          "internalType": "struct DappVotes.PollStruct",
          "name": "",
          "type": "tuple"
        }
      ],
      "stateMutability": "view",
      "type": "function"
    },
    {
      "inputs": [],
      "name": "getPolls",
      "outputs": [
        {
          "components": [
            {
              "internalType": "uint256",
              "name": "id",
              "type": "uint256"
            },
            {
              "internalType": "string",
              "name": "title",
              "type": "string"
            },
            {
              "internalType": "string",
              "name": "description",
              "type": "string"
            },
            {
              "internalType": "uint256",
              "name": "votes",
              "type": "uint256"
            },
            {
              "internalType": "uint256",
              "name": "contestants",
              "type": "uint256"
            },
            {
              "internalType": "bool",
              "name": "deleted",
              "type": "bool"
            },
            {
              "internalType": "address",
              "name": "director",
              "type": "address"
            },
            {
              "internalType": "uint256",
              "name": "startsAt",
              "type": "uint256"
            },
            {
              "internalType": "uint256",
              "name": "endsAt",
              "type": "uint256"
            },
            {
              "internalType": "uint256",
              "name": "timestamp",
              "type": "uint256"
            },
            {
              "internalType": "address[]",
              "name": "voters",
              "type": "address[]"
            },
            {
              "internalType": "string[]",
              "name": "avatars",
              "type": "string[]"
            }
          ],
          "internalType": "struct DappVotes.PollStruct[]",
          "name": "Polls",
          "type": "tuple[]"
        }
      ],
      "stateMutability": "view",
      "type": "function"
    },
    {
      "inputs": [
        {
          "internalType": "uint256",
          "name": "id",
          "type": "uint256"
        },
        {
          "internalType": "string",
          "name": "title",
          "type": "string"
        },
        {
          "internalType": "string",
          "name": "description",
          "type": "string"
        },
        {
          "internalType": "uint256",
          "name": "startsAt",
          "type": "uint256"
        },
        {
          "internalType": "uint256",
          "name": "endsAt",
          "type": "uint256"
        }
      ],
      "name": "updatePoll",
      "outputs": [],
      "stateMutability": "nonpayable",
      "type": "function"
    },
    {
      "inputs": [
        {
          "internalType": "uint256",
          "name": "id",
          "type": "uint256"
        },
        {
          "internalType": "uint256",
          "name": "cid",
          "type": "uint256"
        }
      ],
      "name": "vote",
      "outputs": [],
      "stateMutability": "nonpayable",
      "type": "function"
    }
  ],
  "bytecode": "0x608060405234801561001057600080fd5b506120ff806100206000396000f3fe608060405234801561001057600080fd5b50600436106100935760003560e01c80631f35b51d116100665780631f35b51d146100fe57806366dd51dc14610111578063b384abef14610124578063cee9dc4514610137578063d34364111461015757600080fd5b806306aceddc146100985780631112bead146100ad578063120fe89b146100c05780631a8cbcaa146100de575b600080fd5b6100ab6100a63660046119db565b610177565b005b6100ab6100bb366004611a4f565b610433565b6100c861066c565b6040516100d59190611c88565b60405180910390f35b6100f16100ec366004611cea565b610a55565b6040516100d59190611d03565b6100ab61010c366004611cea565b610d45565b6100ab61011f366004611d1d565b610e27565b6100ab610132366004611d8a565b611099565b61014a610145366004611cea565b611374565b6040516100d59190611e09565b61016a610165366004611d8a565b6115e6565b6040516100d59190611e5e565b60008451116101c55760405162461bcd60e51b81526020600482015260156024820152745469746c652063616e6e6f7420626520656d70747960581b60448201526064015b60405180910390fd5b60008351116102165760405162461bcd60e51b815260206004820152601b60248201527f4465736372697074696f6e2063616e6e6f7420626520656d707479000000000060448201526064016101bc565b600082116102705760405162461bcd60e51b815260206004820152602160248201527f53746172742064617465206d7573742062652067726561746572207468616e206044820152600360fc1b60648201526084016101bc565b81811161028f5760405162461bcd60e51b81526004016101bc90611e71565b61029d600080546001019055565b6102a561176e565b6000548152602081018590526040810184905260e0810183905261010081018290523360c08201526102d561174f565b6101208201526040805160008082526020808301845261014085019290925282518181529182019092529061031a565b60608152602001906001900390816103055790505b50610160820152805160009081526003602090815260409091208251815590820151829190600182019061034e9082611f42565b50604082015160028201906103639082611f42565b50606082015160038201556080820151600482015560a082015160058201805460c08501516001600160a81b0319909116921515610100600160a81b031916929092176101006001600160a01b03909316830217905560e083015160068301558201516007820155610120820151600882015561014082015180516103f29160098401916020909101906117da565b50610160820151805161040f91600a84019160209091019061183f565b505090516000908152600260205260409020805460ff191660011790555050505050565b60008581526002602052604090205460ff166104615760405162461bcd60e51b81526004016101bc90612002565b60008581526003602052604090206005015461010090046001600160a01b031633146104c55760405162461bcd60e51b8152602060048201526013602482015272556e617574686f72697a656420656e7469747960681b60448201526064016101bc565b600084511161050e5760405162461bcd60e51b81526020600482015260156024820152745469746c652063616e6e6f7420626520656d70747960581b60448201526064016101bc565b600083511161055f5760405162461bcd60e51b815260206004820152601b60248201527f4465736372697074696f6e2063616e6e6f7420626520656d707479000000000060448201526064016101bc565b60008581526003602052604090206005015460ff16156105c15760405162461bcd60e51b815260206004820152601760248201527f506f6c6c696e6720616c72656164792064656c6574656400000000000000000060448201526064016101bc565b600085815260036020819052604090912001546001116105f35760405162461bcd60e51b81526004016101bc9061202a565b8181116106125760405162461bcd60e51b81526004016101bc90611e71565b600085815260036020526040902060010161062d8582611f42565b5060008581526003602052604090206002016106498482611f42565b506000948552600360205260409094206006810191909155600701929092555050565b6060600060015b60005481116106b55760008181526003602052604090206005015460ff166106a3578161069f81612070565b9250505b806106ad81612070565b915050610673565b508067ffffffffffffffff8111156106cf576106cf611938565b60405190808252806020026020018201604052801561070857816020015b6106f561176e565b8152602001906001900390816106ed5790505b509150600060015b6000548111610a4f5760008181526003602052604090206005015460ff16610a3d5760036000828152602001908152602001600020604051806101800160405290816000820154815260200160018201805461076b90611eb9565b80601f016020809104026020016040519081016040528092919081815260200182805461079790611eb9565b80156107e45780601f106107b9576101008083540402835291602001916107e4565b820191906000526020600020905b8154815290600101906020018083116107c757829003601f168201915b505050505081526020016002820180546107fd90611eb9565b80601f016020809104026020016040519081016040528092919081815260200182805461082990611eb9565b80156108765780601f1061084b57610100808354040283529160200191610876565b820191906000526020600020905b81548152906001019060200180831161085957829003601f168201915b505050918352505060038201546020808301919091526004830154604080840191909152600584015460ff8116151560608501526001600160a01b0361010091829004166080850152600685015460a0850152600785015460c0850152600885015460e08501526009850180548351818602810186019094528084529190940193919283018282801561093257602002820191906000526020600020905b81546001600160a01b03168152600190910190602001808311610914575b50505050508152602001600a8201805480602002602001604051908101604052809291908181526020016000905b82821015610a0c57838290600052602060002001805461097f90611eb9565b80601f01602080910402602001604051908101604052809291908181526020018280546109ab90611eb9565b80156109f85780601f106109cd576101008083540402835291602001916109f8565b820191906000526020600020905b8154815290600101906020018083116109db57829003601f168201915b505050505081526020019060010190610960565b50505091525085905083610a1f81612070565b945081518110610a3157610a31612089565b60200260200101819052505b80610a4781612070565b915050610710565b50505090565b610a5d61176e565b600360008381526020019081526020016000206040518061018001604052908160008201548152602001600182018054610a9690611eb9565b80601f0160208091040260200160405190810160405280929190818152602001828054610ac290611eb9565b8015610b0f5780601f10610ae457610100808354040283529160200191610b0f565b820191906000526020600020905b815481529060010190602001808311610af257829003601f168201915b50505050508152602001600282018054610b2890611eb9565b80601f0160208091040260200160405190810160405280929190818152602001828054610b5490611eb9565b8015610ba15780601f10610b7657610100808354040283529160200191610ba1565b820191906000526020600020905b815481529060010190602001808311610b8457829003601f168201915b505050918352505060038201546020808301919091526004830154604080840191909152600584015460ff8116151560608501526001600160a01b0361010091829004166080850152600685015460a0850152600785015460c0850152600885015460e085015260098501805483518186028101860190945280845291909401939192830182828015610c5d57602002820191906000526020600020905b81546001600160a01b03168152600190910190602001808311610c3f575b50505050508152602001600a8201805480602002602001604051908101604052809291908181526020016000905b82821015610d37578382906000526020600020018054610caa90611eb9565b80601f0160208091040260200160405190810160405280929190818152602001828054610cd690611eb9565b8015610d235780601f10610cf857610100808354040283529160200191610d23565b820191906000526020600020905b815481529060010190602001808311610d0657829003601f168201915b505050505081526020019060010190610c8b565b505050915250909392505050565b60008181526002602052604090205460ff16610d735760405162461bcd60e51b81526004016101bc90612002565b60008181526003602052604090206005015461010090046001600160a01b03163314610dd75760405162461bcd60e51b8152602060048201526013602482015272556e617574686f72697a656420656e7469747960681b60448201526064016101bc565b60008181526003602081905260409091200154600111610e095760405162461bcd60e51b81526004016101bc9061202a565b6000908152600360205260409020600501805460ff19166001179055565b60008381526002602052604090205460ff16610e555760405162461bcd60e51b81526004016101bc90612002565b6000825111610e9d5760405162461bcd60e51b81526020600482015260146024820152736e616d652063616e6e6f7420626520656d70747960601b60448201526064016101bc565b6000815111610eee5760405162461bcd60e51b815260206004820152601960248201527f496d6167652055524c2063616e6e6f7420626520656d7074790000000000000060448201526064016101bc565b60008381526003602081905260409091200154600111610f205760405162461bcd60e51b81526004016101bc9061202a565b600083815260056020908152604080832033845290915290205460ff1615610f7e5760405162461bcd60e51b8152602060048201526011602482015270105b1c9958591e4818dbdb9d195cdd1959607a1b60448201526064016101bc565b610f8c600180546001019055565b610f94611891565b6020818101848152336040808501919091526001805485526000888152600685528281208651825290945292208351815590518392820190610fd69082611f42565b5060408201516002820180546001600160a01b0319166001600160a01b0390921691909117905560608201516003820155608082015180516110229160048401916020909101906117da565b50505060008481526005602090815260408083203384528252808320805460ff191660011790558683526003909152812060040180549161106283612070565b909155505060008481526003602090815260408220600a0180546001810182559083529120016110928382611f42565b5050505050565b60008281526002602052604090205460ff166110c75760405162461bcd60e51b81526004016101bc90612002565b600082815260046020908152604080832033845290915290205460ff16156111215760405162461bcd60e51b815260206004820152600d60248201526c105b1c9958591e481d9bdd1959609a1b60448201526064016101bc565b60008281526003602052604090206005015460ff161561117b5760405162461bcd60e51b8152602060048201526015602482015274506f6c6c696e67206e6f7420617661696c61626c6560581b60448201526064016101bc565b6000828152600360205260409020600401546001106111d55760405162461bcd60e51b81526020600482015260166024820152754e6f7420656e6f75676820636f6e74657374616e747360501b60448201526064016101bc565b6000828152600360205260409020600601546111ef61174f565b10158015611214575060008281526003602052604090206007015461121261174f565b105b6112605760405162461bcd60e51b815260206004820152601960248201527f566f74696e67206d75737420626520696e2073657373696f6e0000000000000060448201526064016101bc565b600082815260036020819052604082200180549161127d83612070565b9091555050600082815260036020818152604080842060090180546001810182559085528285200180546001600160a01b03191633179055858452600682528084208585529091528220018054916112d483612070565b90915550506000828152600660209081526040808320848452825280832060049081018054600181810183559186528486200180546001600160a01b031916339081179091558786529184528285208286529093529220805460ff191690911790557f4d99b957a2bc29a30ebd96a7be8e68fe50a3c701db28a91436490b7d53870ca461135f61174f565b60405190815260200160405180910390a25050565b6060600060015b60015481116113c55760008481526006602090815260408083208484529091529020548190036113b357816113af81612070565b9250505b806113bd81612070565b91505061137b565b508067ffffffffffffffff8111156113df576113df611938565b60405190808252806020026020018201604052801561141857816020015b611405611891565b8152602001906001900390816113fd5790505b509150600060015b60015481116115de5760008581526006602090815260408083208484529091529020548190036115cc576000858152600660209081526040808320848452825291829020825160a0810190935280548352600181018054919284019161148590611eb9565b80601f01602080910402602001604051908101604052809291908181526020018280546114b190611eb9565b80156114fe5780601f106114d3576101008083540402835291602001916114fe565b820191906000526020600020905b8154815290600101906020018083116114e157829003601f168201915b505050505081526020016002820160009054906101000a90046001600160a01b03166001600160a01b03166001600160a01b03168152602001600382015481526020016004820180548060200260200160405190810160405280929190818152602001828054801561159957602002820191906000526020600020905b81546001600160a01b0316815260019091019060200180831161157b575b5050505050815250508483806115ae90612070565b9450815181106115c0576115c0612089565b60200260200101819052505b806115d681612070565b915050611420565b505050919050565b6115ee611891565b6000838152600660209081526040808320858452825291829020825160a0810190935280548352600181018054919284019161162990611eb9565b80601f016020809104026020016040519081016040528092919081815260200182805461165590611eb9565b80156116a25780601f10611677576101008083540402835291602001916116a2565b820191906000526020600020905b81548152906001019060200180831161168557829003601f168201915b505050505081526020016002820160009054906101000a90046001600160a01b03166001600160a01b03166001600160a01b03168152602001600382015481526020016004820180548060200260200160405190810160405280929190818152602001828054801561173d57602002820191906000526020600020905b81546001600160a01b0316815260019091019060200180831161171f575b50505050508152505090505b92915050565b600061175d426103e861209f565b611769906103e86120b6565b905090565b604051806101800160405280600081526020016060815260200160608152602001600081526020016000815260200160001515815260200160006001600160a01b0316815260200160008152602001600081526020016000815260200160608152602001606081525090565b82805482825590600052602060002090810192821561182f579160200282015b8281111561182f57825182546001600160a01b0319166001600160a01b039091161782556020909201916001909101906117fa565b5061183b9291506118c9565b5090565b828054828255906000526020600020908101928215611885579160200282015b8281111561188557825182906118759082611f42565b509160200191906001019061185f565b5061183b9291506118de565b6040518060a00160405280600081526020016060815260200160006001600160a01b0316815260200160008152602001606081525090565b5b8082111561183b57600081556001016118ca565b8082111561183b5760006118f282826118fb565b506001016118de565b50805461190790611eb9565b6000825580601f10611917575050565b601f01602090049060005260206000209081019061193591906118c9565b50565b634e487b7160e01b600052604160045260246000fd5b600082601f83011261195f57600080fd5b813567ffffffffffffffff8082111561197a5761197a611938565b604051601f8301601f19908116603f011681019082821181831017156119a2576119a2611938565b816040528381528660208588010111156119bb57600080fd5b836020870160208301376000602085830101528094505050505092915050565b600080600080608085870312156119f157600080fd5b843567ffffffffffffffff80821115611a0957600080fd5b611a158883890161194e565b95506020870135915080821115611a2b57600080fd5b50611a388782880161194e565b949794965050505060408301359260600135919050565b600080600080600060a08688031215611a6757600080fd5b85359450602086013567ffffffffffffffff80821115611a8657600080fd5b611a9289838a0161194e565b95506040880135915080821115611aa857600080fd5b50611ab58882890161194e565b9598949750949560608101359550608001359392505050565b6000815180845260005b81811015611af457602081850181015186830182015201611ad8565b506000602082860101526020601f19601f83011685010191505092915050565b600081518084526020808501945080840160005b83811015611b4d5781516001600160a01b031687529582019590820190600101611b28565b509495945050505050565b6000815180845260208085019450848260051b860182860160005b85811015611b9d578383038952611b8b838351611ace565b98850198925090840190600101611b73565b5090979650505050505050565b6000610180825184526020830151816020860152611bca82860182611ace565b91505060408301518482036040860152611be48282611ace565b915050606083015160608501526080830151608085015260a0830151611c0e60a086018215159052565b5060c0830151611c2960c08601826001600160a01b03169052565b5060e08381015190850152610100808401519085015261012080840151908501526101408084015185830382870152611c628382611b14565b925050506101608084015185830382870152611c7e8382611b58565b9695505050505050565b6000602080830181845280855180835260408601915060408160051b870101925083870160005b82811015611cdd57603f19888603018452611ccb858351611baa565b94509285019290850190600101611caf565b5092979650505050505050565b600060208284031215611cfc57600080fd5b5035919050565b602081526000611d166020830184611baa565b9392505050565b600080600060608486031215611d3257600080fd5b83359250602084013567ffffffffffffffff80821115611d5157600080fd5b611d5d8783880161194e565b93506040860135915080821115611d7357600080fd5b50611d808682870161194e565b9150509250925092565b60008060408385031215611d9d57600080fd5b50508035926020909101359150565b805182526000602082015160a06020850152611dcb60a0850182611ace565b905060018060a01b0360408401511660408501526060830151606085015260808301518482036080860152611e008282611b14565b95945050505050565b6000602080830181845280855180835260408601915060408160051b870101925083870160005b82811015611cdd57603f19888603018452611e4c858351611dac565b94509285019290850190600101611e30565b602081526000611d166020830184611dac565b60208082526028908201527f456e642064617465206d7573742062652067726561746572207468616e207374604082015267617274206461746560c01b606082015260800190565b600181811c90821680611ecd57607f821691505b602082108103611eed57634e487b7160e01b600052602260045260246000fd5b50919050565b601f821115611f3d57600081815260208120601f850160051c81016020861015611f1a5750805b601f850160051c820191505b81811015611f3957828155600101611f26565b5050505b505050565b815167ffffffffffffffff811115611f5c57611f5c611938565b611f7081611f6a8454611eb9565b84611ef3565b602080601f831160018114611fa55760008415611f8d5750858301515b600019600386901b1c1916600185901b178555611f39565b600085815260208120601f198616915b82811015611fd457888601518255948401946001909101908401611fb5565b5085821015611ff25787850151600019600388901b60f8161c191681555b5050505050600190811b01905550565b6020808252600e908201526d141bdb1b081b9bdd08199bdd5b9960921b604082015260600190565b602080825260169082015275506f6c6c2068617320766f74657320616c726561647960501b604082015260600190565b634e487b7160e01b600052601160045260246000fd5b6000600182016120825761208261205a565b5060010190565b634e487b7160e01b600052603260045260246000fd5b80820281158282048414176117495761174961205a565b808201808211156117495761174961205a56fea26469706673582212201c25b737f798aa57e56c4c5de41a91f5244d73313631e2b92908f36fba03190e64736f6c63430008110033",
  "linkReferences": {},
  "deployedLinkReferences": {}
}